{
  "address": "0x5FbDB2315678afecb367f032d93F642f64180aa3",
  "abi": [
    {
      "inputs": [
        {
          "internalType": "uint256",
          "name": "feeRate_",
          "type": "uint256"
        }
      ],
      "stateMutability": "nonpayable",
      "type": "constructor"
    },
    {
      "anonymous": false,
      "inputs": [
        {
          "indexed": true,
          "internalType": "address",
          "name": "previousOwner",
          "type": "address"
        },
        {
          "indexed": true,
          "internalType": "address",
          "name": "newOwner",
          "type": "address"
        }
      ],
      "name": "OwnershipTransferred",
      "type": "event"
    },
    {
      "anonymous": false,
      "inputs": [
        {
          "indexed": false,
          "internalType": "address",
          "name": "account",
          "type": "address"
        }
      ],
      "name": "Paused",
      "type": "event"
    },
    {
      "anonymous": false,
      "inputs": [
        {
          "indexed": false,
          "internalType": "address",
          "name": "account",
          "type": "address"
        }
      ],
      "name": "Unpaused",
      "type": "event"
    },
    {
      "inputs": [],
      "name": "CALLBACK_SUCCESS",
      "outputs": [
        {
          "internalType": "bytes32",
          "name": "",
          "type": "bytes32"
        }
      ],
      "stateMutability": "view",
      "type": "function"
    },
    {
      "inputs": [
        {
          "internalType": "address",
          "name": "addr",
          "type": "address"
        },
        {
          "internalType": "bool",
          "name": "status",
          "type": "bool"
        }
      ],
      "name": "allowContract",
      "outputs": [],
      "stateMutability": "nonpayable",
      "type": "function"
    },
    {
      "inputs": [
        {
          "internalType": "address",
          "name": "",
          "type": "address"
        }
      ],
      "name": "allowedContracts",
      "outputs": [
        {
          "internalType": "bool",
          "name": "",
          "type": "bool"
        }
      ],
      "stateMutability": "view",
      "type": "function"
    },
    {
      "inputs": [
        {
          "internalType": "address",
          "name": "user",
          "type": "address"
        },
        {
          "internalType": "address",
          "name": "addr",
          "type": "address"
        },
        {
          "internalType": "bool",
          "name": "status",
          "type": "bool"
        },
        {
          "internalType": "uint8",
          "name": "v",
          "type": "uint8"
        },
        {
          "internalType": "bytes32",
          "name": "r",
          "type": "bytes32"
        },
        {
          "internalType": "bytes32",
          "name": "s",
          "type": "bytes32"
        }
      ],
      "name": "approveContract",
      "outputs": [],
      "stateMutability": "nonpayable",
      "type": "function"
    },
    {
      "inputs": [
        {
          "internalType": "address",
          "name": "token",
          "type": "address"
        },
        {
          "internalType": "uint256",
          "name": "amount",
          "type": "uint256"
        }
      ],
      "name": "deposit",
      "outputs": [],
      "stateMutability": "payable",
      "type": "function"
    },
    {
      "inputs": [
        {
          "internalType": "address",
          "name": "user",
          "type": "address"
        },
        {
          "internalType": "address",
          "name": "token",
          "type": "address"
        },
        {
          "internalType": "uint256",
          "name": "amount",
          "type": "uint256"
        }
      ],
      "name": "emergencyWithdraw",
      "outputs": [],
      "stateMutability": "nonpayable",
      "type": "function"
    },
    {
      "inputs": [],
      "name": "feeRate",
      "outputs": [
        {
          "internalType": "uint256",
          "name": "",
          "type": "uint256"
        }
      ],
      "stateMutability": "view",
      "type": "function"
    },
    {
      "inputs": [
        {
          "internalType": "address",
          "name": "token",
          "type": "address"
        },
        {
          "internalType": "uint256",
          "name": "amount",
          "type": "uint256"
        }
      ],
      "name": "flashFee",
      "outputs": [
        {
          "internalType": "uint256",
          "name": "",
          "type": "uint256"
        }
      ],
      "stateMutability": "view",
      "type": "function"
    },
    {
      "inputs": [
        {
          "internalType": "contract IERC3156FlashBorrower",
          "name": "receiver",
          "type": "address"
        },
        {
          "internalType": "address",
          "name": "token",
          "type": "address"
        },
        {
          "internalType": "uint256",
          "name": "amount",
          "type": "uint256"
        },
        {
          "internalType": "bytes",
          "name": "data",
          "type": "bytes"
        }
      ],
      "name": "flashLoan",
      "outputs": [
        {
          "internalType": "bool",
          "name": "",
          "type": "bool"
        }
      ],
      "stateMutability": "nonpayable",
      "type": "function"
    },
    {
      "inputs": [
        {
          "internalType": "address",
          "name": "token",
          "type": "address"
        }
      ],
      "name": "maxFlashLoan",
      "outputs": [
        {
          "internalType": "uint256",
          "name": "",
          "type": "uint256"
        }
      ],
      "stateMutability": "view",
      "type": "function"
    },
    {
      "inputs": [],
      "name": "owner",
      "outputs": [
        {
          "internalType": "address",
          "name": "",
          "type": "address"
        }
      ],
      "stateMutability": "view",
      "type": "function"
    },
    {
      "inputs": [],
      "name": "paused",
      "outputs": [
        {
          "internalType": "bool",
          "name": "",
          "type": "bool"
        }
      ],
      "stateMutability": "view",
      "type": "function"
    },
    {
      "inputs": [],
      "name": "renounceOwnership",
      "outputs": [],
      "stateMutability": "nonpayable",
      "type": "function"
    },
    {
      "inputs": [
        {
          "internalType": "bool",
          "name": "pause",
          "type": "bool"
        }
      ],
      "name": "setPause",
      "outputs": [],
      "stateMutability": "nonpayable",
      "type": "function"
    },
    {
      "inputs": [
        {
          "internalType": "contract IERC20",
          "name": "token",
          "type": "address"
        },
        {
          "internalType": "uint256",
          "name": "amount",
          "type": "uint256"
        }
      ],
      "name": "toShare",
      "outputs": [
        {
          "internalType": "uint256",
          "name": "share",
          "type": "uint256"
        }
      ],
      "stateMutability": "view",
      "type": "function"
    },
    {
      "inputs": [
        {
          "internalType": "contract IERC20",
          "name": "token",
          "type": "address"
        },
        {
          "internalType": "uint256",
          "name": "share",
          "type": "uint256"
        }
      ],
      "name": "toUnderlying",
      "outputs": [
        {
          "internalType": "uint256",
          "name": "amount",
          "type": "uint256"
        }
      ],
      "stateMutability": "view",
      "type": "function"
    },
    {
      "inputs": [
        {
          "internalType": "address",
          "name": "",
          "type": "address"
        }
      ],
      "name": "totalAmounts",
      "outputs": [
        {
          "internalType": "uint256",
          "name": "",
          "type": "uint256"
        }
      ],
      "stateMutability": "view",
      "type": "function"
    },
    {
      "inputs": [
        {
          "internalType": "address",
          "name": "",
          "type": "address"
        }
      ],
      "name": "totalShares",
      "outputs": [
        {
          "internalType": "uint256",
          "name": "",
          "type": "uint256"
        }
      ],
      "stateMutability": "view",
      "type": "function"
    },
    {
      "inputs": [
        {
          "internalType": "address",
          "name": "user",
          "type": "address"
        },
        {
          "internalType": "address",
          "name": "receiver",
          "type": "address"
        },
        {
          "internalType": "address",
          "name": "token",
          "type": "address"
        },
        {
          "internalType": "uint256",
          "name": "share",
          "type": "uint256"
        }
      ],
      "name": "transfer",
      "outputs": [],
      "stateMutability": "payable",
      "type": "function"
    },
    {
      "inputs": [
        {
          "internalType": "address",
          "name": "newOwner",
          "type": "address"
        }
      ],
      "name": "transferOwnership",
      "outputs": [],
      "stateMutability": "nonpayable",
      "type": "function"
    },
    {
      "inputs": [
        {
          "internalType": "address",
          "name": "newCode",
          "type": "address"
        }
      ],
      "name": "updateCode",
      "outputs": [],
      "stateMutability": "nonpayable",
      "type": "function"
    },
    {
      "inputs": [
        {
          "internalType": "uint256",
          "name": "feeRate_",
          "type": "uint256"
        }
      ],
      "name": "updateFlashloanfeeRate",
      "outputs": [],
      "stateMutability": "nonpayable",
      "type": "function"
    },
    {
      "inputs": [
        {
          "internalType": "address",
          "name": "",
          "type": "address"
        },
        {
          "internalType": "address",
          "name": "",
          "type": "address"
        }
      ],
      "name": "userShares",
      "outputs": [
        {
          "internalType": "uint256",
          "name": "",
          "type": "uint256"
        }
      ],
      "stateMutability": "view",
      "type": "function"
    },
    {
      "inputs": [
        {
          "internalType": "address",
          "name": "addr",
          "type": "address"
        },
        {
          "internalType": "address",
          "name": "token",
          "type": "address"
        }
      ],
      "name": "viewShare",
      "outputs": [
        {
          "internalType": "uint256",
          "name": "amount",
          "type": "uint256"
        }
      ],
      "stateMutability": "view",
      "type": "function"
    },
    {
      "inputs": [
        {
          "internalType": "address",
          "name": "",
          "type": "address"
        },
        {
          "internalType": "address",
          "name": "",
          "type": "address"
        }
      ],
      "name": "whiteList",
      "outputs": [
        {
          "internalType": "bool",
          "name": "",
          "type": "bool"
        }
      ],
      "stateMutability": "view",
      "type": "function"
    },
    {
      "inputs": [
        {
          "internalType": "address",
          "name": "user",
          "type": "address"
        },
        {
          "internalType": "address",
          "name": "token",
          "type": "address"
        }
      ],
      "name": "withdraw",
      "outputs": [],
      "stateMutability": "payable",
      "type": "function"
    }
  ],
  "transactionHash": "0xf21085ca25534b2c56440a26d728b7d16b0309e17af9d1ac1f81debb86b7b316",
  "args": [
    1
  ],
  "solcInputHash": "3009b66269b2998ab12f62321576aebf",
  "bytecode": "0x60806040523480156200001157600080fd5b506040516200383f3803806200383f833981810160405281019062000037919062000169565b620000576200004b6200008660201b60201c565b6200008e60201b60201c565b60008060146101000a81548160ff021916908315150217905550600180819055508060078190555050620001b9565b600033905090565b60008060009054906101000a900473ffffffffffffffffffffffffffffffffffffffff169050816000806101000a81548173ffffffffffffffffffffffffffffffffffffffff021916908373ffffffffffffffffffffffffffffffffffffffff1602179055508173ffffffffffffffffffffffffffffffffffffffff168173ffffffffffffffffffffffffffffffffffffffff167f8be0079c531659141344cd1fd0a4f28419497f9722a3daafe3b4186f6b6457e060405160405180910390a35050565b60008151905062000163816200019f565b92915050565b6000602082840312156200017c57600080fd5b60006200018c8482850162000152565b91505092915050565b6000819050919050565b620001aa8162000195565b8114620001b657600080fd5b50565b61367680620001c96000396000f3fe6080604052600436106101815760003560e01c8063978bbdb9116100d1578063d9ac7b841161008a578063e63ea40811610064578063e63ea408146105d1578063f18d03cc146105fa578063f2fde38b14610616578063f940e3851461063f57610181565b8063d9ac7b841461052e578063d9d98ce41461056b578063dde284f7146105a857610181565b8063978bbdb9146103fa578063bedb86fb14610425578063bf6b874e1461044e578063ce0fd1761461048b578063d500a9a2146104c8578063d78af5f11461050557610181565b80635299493b1161013e578063613255ab11610118578063613255ab14610350578063715018a61461038d5780638237e538146103a45780638da5cb5b146103cf57610181565b80635299493b146102ab5780635c975abb146102e85780635cffe9de1461031357610181565b80631142160c146101865780631f2e4be8146101c35780633f21c1b414610200578063469519541461022957806347e7ef241461025257806351e0e26b1461026e575b600080fd5b34801561019257600080fd5b506101ad60048036038101906101a891906124ec565b61065b565b6040516101ba9190612f74565b60405180910390f35b3480156101cf57600080fd5b506101ea60048036038101906101e591906124c3565b610680565b6040516101f79190612f74565b60405180910390f35b34801561020c57600080fd5b506102276004803603810190610222919061258b565b610698565b005b34801561023557600080fd5b50610250600480360381019061024b91906124c3565b610a18565b005b61026c6004803603810190610267919061269f565b610a23565b005b34801561027a57600080fd5b50610295600480360381019061029091906124c3565b610f39565b6040516102a29190612c7d565b60405180910390f35b3480156102b757600080fd5b506102d260048036038101906102cd9190612756565b610f59565b6040516102df9190612f74565b60405180910390f35b3480156102f457600080fd5b506102fd610ff8565b60405161030a9190612c7d565b60405180910390f35b34801561031f57600080fd5b5061033a60048036038101906103359190612792565b61100e565b6040516103479190612c7d565b60405180910390f35b34801561035c57600080fd5b50610377600480360381019061037291906124c3565b6113b7565b6040516103849190612f74565b60405180910390f35b34801561039957600080fd5b506103a2611400565b005b3480156103b057600080fd5b506103b9611414565b6040516103c69190612c98565b60405180910390f35b3480156103db57600080fd5b506103e4611438565b6040516103f19190612b7d565b60405180910390f35b34801561040657600080fd5b5061040f611461565b60405161041c9190612f74565b60405180910390f35b34801561043157600080fd5b5061044c600480360381019061044791906126db565b611467565b005b34801561045a57600080fd5b50610475600480360381019061047091906124c3565b611495565b6040516104829190612f74565b60405180910390f35b34801561049757600080fd5b506104b260048036038101906104ad91906124ec565b6114ad565b6040516104bf9190612c7d565b60405180910390f35b3480156104d457600080fd5b506104ef60048036038101906104ea91906124ec565b6114dc565b6040516104fc9190612f74565b60405180910390f35b34801561051157600080fd5b5061052c60048036038101906105279190612663565b61156b565b005b34801561053a57600080fd5b5061055560048036038101906105509190612756565b6115ce565b6040516105629190612f74565b60405180910390f35b34801561057757600080fd5b50610592600480360381019061058d919061269f565b61166d565b60405161059f9190612f74565b60405180910390f35b3480156105b457600080fd5b506105cf60048036038101906105ca9190612812565b611681565b005b3480156105dd57600080fd5b506105f860048036038101906105f39190612614565b611693565b005b610614600480360381019061060f9190612528565b611893565b005b34801561062257600080fd5b5061063d600480360381019061063891906124c3565b611be8565b005b610659600480360381019061065491906124ec565b611c6c565b005b6002602052816000526040600020602052806000526040600020600091509150505481565b60066020528060005260406000206000915090505481565b6106a06120e0565b60011515600460008773ffffffffffffffffffffffffffffffffffffffff1673ffffffffffffffffffffffffffffffffffffffff16815260200190815260200160002060009054906101000a900460ff16151514610733576040517f08c379a000000000000000000000000000000000000000000000000000000000815260040161072a90612d74565b60405180910390fd5b60006001905060007f8b73c3c69bb8fe3d512ecc4cf759cc79239f7b179b0ffacaa9a75d522b39400f6040518060400160405280600781526020017f5365745465737400000000000000000000000000000000000000000000000000815250805190602001206040518060400160405280600181526020017f310000000000000000000000000000000000000000000000000000000000000081525080519060200120848a6040516020016107ec959493929190612cdc565b60405160208183030381529060405280519060200120905060007f1582d6e9746507e8af04a1a7c592fe7a7394dae5ade26a3a592699faf990dfeb89604051602001610839929190612cb3565b60405160208183030381529060405280519060200120905060008282604051602001610866929190612b46565b6040516020818303038152906040528051906020012090506000600182898989604051600081526020016040526040516108a39493929190612d2f565b6020604051602081039080840390855afa1580156108c5573d6000803e3d6000fd5b5050506020604051035190508a73ffffffffffffffffffffffffffffffffffffffff168173ffffffffffffffffffffffffffffffffffffffff1614806109385750600073ffffffffffffffffffffffffffffffffffffffff168173ffffffffffffffffffffffffffffffffffffffff1614155b610977576040517f08c379a000000000000000000000000000000000000000000000000000000000815260040161096e90612f14565b60405180910390fd5b88600360008c73ffffffffffffffffffffffffffffffffffffffff1673ffffffffffffffffffffffffffffffffffffffff16815260200190815260200160002060008d73ffffffffffffffffffffffffffffffffffffffff1673ffffffffffffffffffffffffffffffffffffffff16815260200190815260200160002060006101000a81548160ff0219169083151502179055505050505050505050505050565b610a2061212a565b50565b610a2b6120e0565b808273ffffffffffffffffffffffffffffffffffffffff1663dd62ed3e33306040518363ffffffff1660e01b8152600401610a67929190612b98565b60206040518083038186803b158015610a7f57600080fd5b505afa158015610a93573d6000803e3d6000fd5b505050506040513d601f19601f82011682018060405250810190610ab7919061283b565b10158015610ac6575060008114155b610b05576040517f08c379a0000000000000000000000000000000000000000000000000000000008152600401610afc90612eb4565b60405180910390fd5b808273ffffffffffffffffffffffffffffffffffffffff166370a08231336040518263ffffffff1660e01b8152600401610b3f9190612b7d565b60206040518083038186803b158015610b5757600080fd5b505afa158015610b6b573d6000803e3d6000fd5b505050506040513d601f19601f82011682018060405250810190610b8f919061283b565b1015610bd0576040517f08c379a0000000000000000000000000000000000000000000000000000000008152600401610bc790612f54565b60405180910390fd5b8173ffffffffffffffffffffffffffffffffffffffff166323b872dd3330846040518463ffffffff1660e01b8152600401610c0d93929190612bc1565b602060405180830381600087803b158015610c2757600080fd5b505af1158015610c3b573d6000803e3d6000fd5b505050506040513d601f19601f82011682018060405250810190610c5f9190612704565b506000600660008473ffffffffffffffffffffffffffffffffffffffff1673ffffffffffffffffffffffffffffffffffffffff168152602001908152602001600020541415610d6d57600560008373ffffffffffffffffffffffffffffffffffffffff1673ffffffffffffffffffffffffffffffffffffffff16815260200190815260200160002054600260003373ffffffffffffffffffffffffffffffffffffffff1673ffffffffffffffffffffffffffffffffffffffff16815260200190815260200160002060008473ffffffffffffffffffffffffffffffffffffffff1673ffffffffffffffffffffffffffffffffffffffff16815260200190815260200160002081905550610edf565b6000600660008473ffffffffffffffffffffffffffffffffffffffff1673ffffffffffffffffffffffffffffffffffffffff16815260200190815260200160002054600560008573ffffffffffffffffffffffffffffffffffffffff1673ffffffffffffffffffffffffffffffffffffffff1681526020019081526020016000205483610dfa9190613043565b610e049190613012565b905080600560008573ffffffffffffffffffffffffffffffffffffffff1673ffffffffffffffffffffffffffffffffffffffff1681526020019081526020016000206000828254610e559190612fbc565b9250508190555080600260003373ffffffffffffffffffffffffffffffffffffffff1673ffffffffffffffffffffffffffffffffffffffff16815260200190815260200160002060008573ffffffffffffffffffffffffffffffffffffffff1673ffffffffffffffffffffffffffffffffffffffff16815260200190815260200160002081905550505b80600660008473ffffffffffffffffffffffffffffffffffffffff1673ffffffffffffffffffffffffffffffffffffffff1681526020019081526020016000206000828254610f2e9190612fbc565b925050819055505050565b60046020528060005260406000206000915054906101000a900460ff1681565b6000600560008473ffffffffffffffffffffffffffffffffffffffff1673ffffffffffffffffffffffffffffffffffffffff16815260200190815260200160002054600660008573ffffffffffffffffffffffffffffffffffffffff1673ffffffffffffffffffffffffffffffffffffffff1681526020019081526020016000205483610fe69190613043565b610ff09190613012565b905092915050565b60008060149054906101000a900460ff16905090565b60006110186120e0565b600061102486866121a8565b9050600660008773ffffffffffffffffffffffffffffffffffffffff1673ffffffffffffffffffffffffffffffffffffffff1681526020019081526020016000205485111580156110755750600085115b6110b4576040517f08c379a00000000000000000000000000000000000000000000000000000000081526004016110ab90612dd4565b60405180910390fd5b8573ffffffffffffffffffffffffffffffffffffffff1663a9059cbb88876040518363ffffffff1660e01b81526004016110ef929190612c54565b602060405180830381600087803b15801561110957600080fd5b505af115801561111d573d6000803e3d6000fd5b505050506040513d601f19601f820116820180604052508101906111419190612704565b507f439148f0bbc682ca079e46d6e2c2f0c1e3b820f1a291b069d8882abf8cf18dd98773ffffffffffffffffffffffffffffffffffffffff166323e30c8b338989868a8a6040518763ffffffff1660e01b81526004016111a696959493929190612bf8565b602060405180830381600087803b1580156111c057600080fd5b505af11580156111d4573d6000803e3d6000fd5b505050506040513d601f19601f820116820180604052508101906111f8919061272d565b14611238576040517f08c379a000000000000000000000000000000000000000000000000000000000815260040161122f90612f34565b60405180910390fd5b80856112449190612fbc565b8673ffffffffffffffffffffffffffffffffffffffff166370a08231896040518263ffffffff1660e01b815260040161127d9190612b7d565b60206040518083038186803b15801561129557600080fd5b505afa1580156112a9573d6000803e3d6000fd5b505050506040513d601f19601f820116820180604052508101906112cd919061283b565b101561130e576040517f08c379a000000000000000000000000000000000000000000000000000000000815260040161130590612e94565b60405180910390fd5b8573ffffffffffffffffffffffffffffffffffffffff166323b872dd883084896113389190612fbc565b6040518463ffffffff1660e01b815260040161135693929190612bc1565b602060405180830381600087803b15801561137057600080fd5b505af1158015611384573d6000803e3d6000fd5b505050506040513d601f19601f820116820180604052508101906113a89190612704565b50600191505095945050505050565b6000600660008373ffffffffffffffffffffffffffffffffffffffff1673ffffffffffffffffffffffffffffffffffffffff168152602001908152602001600020549050919050565b61140861212a565b61141260006121cd565b565b7f439148f0bbc682ca079e46d6e2c2f0c1e3b820f1a291b069d8882abf8cf18dd981565b60008060009054906101000a900473ffffffffffffffffffffffffffffffffffffffff16905090565b60075481565b61146f61212a565b60011515811515141561148957611484612291565b611492565b6114916122f4565b5b50565b60056020528060005260406000206000915090505481565b60036020528160005260406000206020528060005260406000206000915091509054906101000a900460ff1681565b60006114e661212a565b600260008473ffffffffffffffffffffffffffffffffffffffff1673ffffffffffffffffffffffffffffffffffffffff16815260200190815260200160002060008373ffffffffffffffffffffffffffffffffffffffff1673ffffffffffffffffffffffffffffffffffffffff16815260200190815260200160002054905092915050565b61157361212a565b80600460008473ffffffffffffffffffffffffffffffffffffffff1673ffffffffffffffffffffffffffffffffffffffff16815260200190815260200160002060006101000a81548160ff0219169083151502179055505050565b6000600660008473ffffffffffffffffffffffffffffffffffffffff1673ffffffffffffffffffffffffffffffffffffffff16815260200190815260200160002054600560008573ffffffffffffffffffffffffffffffffffffffff1673ffffffffffffffffffffffffffffffffffffffff168152602001908152602001600020548361165b9190613043565b6116659190613012565b905092915050565b600061167983836121a8565b905092915050565b61168961212a565b8060078190555050565b61169b61212a565b6000600560008473ffffffffffffffffffffffffffffffffffffffff1673ffffffffffffffffffffffffffffffffffffffff16815260200190815260200160002054600660008573ffffffffffffffffffffffffffffffffffffffff1673ffffffffffffffffffffffffffffffffffffffff16815260200190815260200160002054600260008773ffffffffffffffffffffffffffffffffffffffff1673ffffffffffffffffffffffffffffffffffffffff16815260200190815260200160002060008673ffffffffffffffffffffffffffffffffffffffff1673ffffffffffffffffffffffffffffffffffffffff168152602001908152602001600020546117a49190613043565b6117ae9190613012565b90508082111580156117c05750600082115b6117ff576040517f08c379a00000000000000000000000000000000000000000000000000000000081526004016117f690612ed4565b60405180910390fd5b8273ffffffffffffffffffffffffffffffffffffffff1663a9059cbb85846040518363ffffffff1660e01b815260040161183a929190612c54565b602060405180830381600087803b15801561185457600080fd5b505af1158015611868573d6000803e3d6000fd5b505050506040513d601f19601f8201168201806040525081019061188c9190612704565b5050505050565b61189b6120e0565b3373ffffffffffffffffffffffffffffffffffffffff168473ffffffffffffffffffffffffffffffffffffffff1614806119be575060011515600360003373ffffffffffffffffffffffffffffffffffffffff1673ffffffffffffffffffffffffffffffffffffffff16815260200190815260200160002060008673ffffffffffffffffffffffffffffffffffffffff1673ffffffffffffffffffffffffffffffffffffffff16815260200190815260200160002060009054906101000a900460ff1615151480156119bd575060011515600460003373ffffffffffffffffffffffffffffffffffffffff1673ffffffffffffffffffffffffffffffffffffffff16815260200190815260200160002060009054906101000a900460ff161515145b5b6119fd576040517f08c379a00000000000000000000000000000000000000000000000000000000081526004016119f490612e14565b60405180910390fd5b80600260008673ffffffffffffffffffffffffffffffffffffffff1673ffffffffffffffffffffffffffffffffffffffff16815260200190815260200160002060008473ffffffffffffffffffffffffffffffffffffffff1673ffffffffffffffffffffffffffffffffffffffff168152602001908152602001600020541015611abc576040517f08c379a0000000000000000000000000000000000000000000000000000000008152600401611ab390612e34565b60405180910390fd5b80600260008673ffffffffffffffffffffffffffffffffffffffff1673ffffffffffffffffffffffffffffffffffffffff16815260200190815260200160002060008473ffffffffffffffffffffffffffffffffffffffff1673ffffffffffffffffffffffffffffffffffffffff1681526020019081526020016000206000828254611b48919061309d565b9250508190555080600260008573ffffffffffffffffffffffffffffffffffffffff1673ffffffffffffffffffffffffffffffffffffffff16815260200190815260200160002060008473ffffffffffffffffffffffffffffffffffffffff1673ffffffffffffffffffffffffffffffffffffffff1681526020019081526020016000206000828254611bdb9190612fbc565b9250508190555050505050565b611bf061212a565b600073ffffffffffffffffffffffffffffffffffffffff168173ffffffffffffffffffffffffffffffffffffffff161415611c60576040517f08c379a0000000000000000000000000000000000000000000000000000000008152600401611c5790612db4565b60405180910390fd5b611c69816121cd565b50565b611c746120e0565b3373ffffffffffffffffffffffffffffffffffffffff168273ffffffffffffffffffffffffffffffffffffffff161480611d97575060011515600360003373ffffffffffffffffffffffffffffffffffffffff1673ffffffffffffffffffffffffffffffffffffffff16815260200190815260200160002060008473ffffffffffffffffffffffffffffffffffffffff1673ffffffffffffffffffffffffffffffffffffffff16815260200190815260200160002060009054906101000a900460ff161515148015611d96575060011515600460003373ffffffffffffffffffffffffffffffffffffffff1673ffffffffffffffffffffffffffffffffffffffff16815260200190815260200160002060009054906101000a900460ff161515145b5b611dd6576040517f08c379a0000000000000000000000000000000000000000000000000000000008152600401611dcd90612ef4565b60405180910390fd5b6000611e5e82600260008673ffffffffffffffffffffffffffffffffffffffff1673ffffffffffffffffffffffffffffffffffffffff16815260200190815260200160002060008573ffffffffffffffffffffffffffffffffffffffff1673ffffffffffffffffffffffffffffffffffffffff16815260200190815260200160002054610f59565b905060008111611ea3576040517f08c379a0000000000000000000000000000000000000000000000000000000008152600401611e9a90612e74565b60405180910390fd5b80600660008473ffffffffffffffffffffffffffffffffffffffff1673ffffffffffffffffffffffffffffffffffffffff1681526020019081526020016000206000828254611ef2919061309d565b92505081905550600260008473ffffffffffffffffffffffffffffffffffffffff1673ffffffffffffffffffffffffffffffffffffffff16815260200190815260200160002060008373ffffffffffffffffffffffffffffffffffffffff1673ffffffffffffffffffffffffffffffffffffffff16815260200190815260200160002054600560008473ffffffffffffffffffffffffffffffffffffffff1673ffffffffffffffffffffffffffffffffffffffff1681526020019081526020016000206000828254611fc4919061309d565b925050819055506000600260008573ffffffffffffffffffffffffffffffffffffffff1673ffffffffffffffffffffffffffffffffffffffff16815260200190815260200160002060008473ffffffffffffffffffffffffffffffffffffffff1673ffffffffffffffffffffffffffffffffffffffff168152602001908152602001600020819055508173ffffffffffffffffffffffffffffffffffffffff1663a9059cbb84836040518363ffffffff1660e01b8152600401612088929190612c54565b602060405180830381600087803b1580156120a257600080fd5b505af11580156120b6573d6000803e3d6000fd5b505050506040513d601f19601f820116820180604052508101906120da9190612704565b50505050565b6120e8610ff8565b15612128576040517f08c379a000000000000000000000000000000000000000000000000000000000815260040161211f90612df4565b60405180910390fd5b565b612132612356565b73ffffffffffffffffffffffffffffffffffffffff16612150611438565b73ffffffffffffffffffffffffffffffffffffffff16146121a6576040517f08c379a000000000000000000000000000000000000000000000000000000000815260040161219d90612e54565b60405180910390fd5b565b6000612710600754836121bb9190613043565b6121c59190613012565b905092915050565b60008060009054906101000a900473ffffffffffffffffffffffffffffffffffffffff169050816000806101000a81548173ffffffffffffffffffffffffffffffffffffffff021916908373ffffffffffffffffffffffffffffffffffffffff1602179055508173ffffffffffffffffffffffffffffffffffffffff168173ffffffffffffffffffffffffffffffffffffffff167f8be0079c531659141344cd1fd0a4f28419497f9722a3daafe3b4186f6b6457e060405160405180910390a35050565b6122996120e0565b6001600060146101000a81548160ff0219169083151502179055507f62e78cea01bee320cd4e420270b5ea74000d11b0c9f74754ebdbfc544b05a2586122dd612356565b6040516122ea9190612b7d565b60405180910390a1565b6122fc61235e565b60008060146101000a81548160ff0219169083151502179055507f5db9ee0a495bf2e6ff9c91a7834c1ba4fdd244a5e8aa4e537bd38aeae4b073aa61233f612356565b60405161234c9190612b7d565b60405180910390a1565b600033905090565b612366610ff8565b6123a5576040517f08c379a000000000000000000000000000000000000000000000000000000000815260040161239c90612d94565b60405180910390fd5b565b6000813590506123b68161359f565b92915050565b6000813590506123cb816135b6565b92915050565b6000815190506123e0816135b6565b92915050565b6000813590506123f5816135cd565b92915050565b60008151905061240a816135cd565b92915050565b60008083601f84011261242257600080fd5b8235905067ffffffffffffffff81111561243b57600080fd5b60208301915083600182028301111561245357600080fd5b9250929050565b600081359050612469816135e4565b92915050565b60008135905061247e816135fb565b92915050565b60008135905061249381613612565b92915050565b6000815190506124a881613612565b92915050565b6000813590506124bd81613629565b92915050565b6000602082840312156124d557600080fd5b60006124e3848285016123a7565b91505092915050565b600080604083850312156124ff57600080fd5b600061250d858286016123a7565b925050602061251e858286016123a7565b9150509250929050565b6000806000806080858703121561253e57600080fd5b600061254c878288016123a7565b945050602061255d878288016123a7565b935050604061256e878288016123a7565b925050606061257f87828801612484565b91505092959194509250565b60008060008060008060c087890312156125a457600080fd5b60006125b289828a016123a7565b96505060206125c389828a016123a7565b95505060406125d489828a016123bc565b94505060606125e589828a016124ae565b93505060806125f689828a016123e6565b92505060a061260789828a016123e6565b9150509295509295509295565b60008060006060848603121561262957600080fd5b6000612637868287016123a7565b9350506020612648868287016123a7565b925050604061265986828701612484565b9150509250925092565b6000806040838503121561267657600080fd5b6000612684858286016123a7565b9250506020612695858286016123bc565b9150509250929050565b600080604083850312156126b257600080fd5b60006126c0858286016123a7565b92505060206126d185828601612484565b9150509250929050565b6000602082840312156126ed57600080fd5b60006126fb848285016123bc565b91505092915050565b60006020828403121561271657600080fd5b6000612724848285016123d1565b91505092915050565b60006020828403121561273f57600080fd5b600061274d848285016123fb565b91505092915050565b6000806040838503121561276957600080fd5b60006127778582860161245a565b925050602061278885828601612484565b9150509250929050565b6000806000806000608086880312156127aa57600080fd5b60006127b88882890161246f565b95505060206127c9888289016123a7565b94505060406127da88828901612484565b935050606086013567ffffffffffffffff8111156127f757600080fd5b61280388828901612410565b92509250509295509295909350565b60006020828403121561282457600080fd5b600061283284828501612484565b91505092915050565b60006020828403121561284d57600080fd5b600061285b84828501612499565b91505092915050565b61286d816130d1565b82525050565b61287c816130e3565b82525050565b61288b816130ef565b82525050565b6128a261289d826130ef565b613163565b82525050565b60006128b48385612f8f565b93506128c1838584613154565b6128ca836131cb565b840190509392505050565b60006128e2602083612fa0565b91506128ed826131dc565b602082019050919050565b6000612905601483612fa0565b915061291082613205565b602082019050919050565b6000612928602683612fa0565b91506129338261322e565b604082019050919050565b600061294b600283612fb1565b91506129568261327d565b600282019050919050565b600061296e601e83612fa0565b9150612979826132a6565b602082019050919050565b6000612991601083612fa0565b915061299c826132cf565b602082019050919050565b60006129b4602183612fa0565b91506129bf826132f8565b604082019050919050565b60006129d7601d83612fa0565b91506129e282613347565b602082019050919050565b60006129fa602083612fa0565b9150612a0582613370565b602082019050919050565b6000612a1d601d83612fa0565b9150612a2882613399565b602082019050919050565b6000612a40602683612fa0565b9150612a4b826133c2565b604082019050919050565b6000612a63601b83612fa0565b9150612a6e82613411565b602082019050919050565b6000612a86602683612fa0565b9150612a918261343a565b604082019050919050565b6000612aa9602183612fa0565b9150612ab482613489565b604082019050919050565b6000612acc602283612fa0565b9150612ad7826134d8565b604082019050919050565b6000612aef601783612fa0565b9150612afa82613527565b602082019050919050565b6000612b12602183612fa0565b9150612b1d82613550565b604082019050919050565b612b318161313d565b82525050565b612b4081613147565b82525050565b6000612b518261293e565b9150612b5d8285612891565b602082019150612b6d8284612891565b6020820191508190509392505050565b6000602082019050612b926000830184612864565b92915050565b6000604082019050612bad6000830185612864565b612bba6020830184612864565b9392505050565b6000606082019050612bd66000830186612864565b612be36020830185612864565b612bf06040830184612b28565b949350505050565b600060a082019050612c0d6000830189612864565b612c1a6020830188612864565b612c276040830187612b28565b612c346060830186612b28565b8181036080830152612c478184866128a8565b9050979650505050505050565b6000604082019050612c696000830185612864565b612c766020830184612b28565b9392505050565b6000602082019050612c926000830184612873565b92915050565b6000602082019050612cad6000830184612882565b92915050565b6000604082019050612cc86000830185612882565b612cd56020830184612864565b9392505050565b600060a082019050612cf16000830188612882565b612cfe6020830187612882565b612d0b6040830186612882565b612d186060830185612b28565b612d256080830184612864565b9695505050505050565b6000608082019050612d446000830187612882565b612d516020830186612b37565b612d5e6040830185612882565b612d6b6060830184612882565b95945050505050565b60006020820190508181036000830152612d8d816128d5565b9050919050565b60006020820190508181036000830152612dad816128f8565b9050919050565b60006020820190508181036000830152612dcd8161291b565b9050919050565b60006020820190508181036000830152612ded81612961565b9050919050565b60006020820190508181036000830152612e0d81612984565b9050919050565b60006020820190508181036000830152612e2d816129a7565b9050919050565b60006020820190508181036000830152612e4d816129ca565b9050919050565b60006020820190508181036000830152612e6d816129ed565b9050919050565b60006020820190508181036000830152612e8d81612a10565b9050919050565b60006020820190508181036000830152612ead81612a33565b9050919050565b60006020820190508181036000830152612ecd81612a56565b9050919050565b60006020820190508181036000830152612eed81612a79565b9050919050565b60006020820190508181036000830152612f0d81612a9c565b9050919050565b60006020820190508181036000830152612f2d81612abf565b9050919050565b60006020820190508181036000830152612f4d81612ae2565b9050919050565b60006020820190508181036000830152612f6d81612b05565b9050919050565b6000602082019050612f896000830184612b28565b92915050565b600082825260208201905092915050565b600082825260208201905092915050565b600081905092915050565b6000612fc78261313d565b9150612fd28361313d565b9250827fffffffffffffffffffffffffffffffffffffffffffffffffffffffffffffffff038211156130075761300661316d565b5b828201905092915050565b600061301d8261313d565b91506130288361313d565b9250826130385761303761319c565b5b828204905092915050565b600061304e8261313d565b91506130598361313d565b9250817fffffffffffffffffffffffffffffffffffffffffffffffffffffffffffffffff04831182151516156130925761309161316d565b5b828202905092915050565b60006130a88261313d565b91506130b38361313d565b9250828210156130c6576130c561316d565b5b828203905092915050565b60006130dc8261311d565b9050919050565b60008115159050919050565b6000819050919050565b6000613104826130d1565b9050919050565b6000613116826130d1565b9050919050565b600073ffffffffffffffffffffffffffffffffffffffff82169050919050565b6000819050919050565b600060ff82169050919050565b82818337600083830152505050565b6000819050919050565b7f4e487b7100000000000000000000000000000000000000000000000000000000600052601160045260246000fd5b7f4e487b7100000000000000000000000000000000000000000000000000000000600052601260045260246000fd5b6000601f19601f8301169050919050565b7f5661756c743a20636f6e7472616374206d75737420626520616c6c6f7765642e600082015250565b7f5061757361626c653a206e6f7420706175736564000000000000000000000000600082015250565b7f4f776e61626c653a206e6577206f776e657220697320746865207a65726f206160008201527f6464726573730000000000000000000000000000000000000000000000000000602082015250565b7f1901000000000000000000000000000000000000000000000000000000000000600082015250565b7f5661756c743a20666c6173684c6f616e20616d6f756e74204572726f722e0000600082015250565b7f5061757361626c653a2070617573656400000000000000000000000000000000600082015250565b7f5661756c743a207472616e73666572207065726d697373696f6e206572726f7260008201527f2e00000000000000000000000000000000000000000000000000000000000000602082015250565b7f5661756c743a207472616e7366657220616d6f756e74206572726f722e000000600082015250565b7f4f776e61626c653a2063616c6c6572206973206e6f7420746865206f776e6572600082015250565b7f5661756c743a20776974686472617720616d6f756e74206572726f722e000000600082015250565b7f5661756c743a20466c617368426f72726f776572206661696c656420666c617360008201527f684c6f616e2e0000000000000000000000000000000000000000000000000000602082015250565b7f5661756c743a20596f75206d75737420626520617070726f76652e0000000000600082015250565b7f5661756c743a20656d657267656e6379576974686472617720616d6f756e742060008201527f6572726f722e0000000000000000000000000000000000000000000000000000602082015250565b7f5661756c743a207769746864726177207065726d697373696f6e206572726f7260008201527f2e00000000000000000000000000000000000000000000000000000000000000602082015250565b7f417070726f766546756e6374696f6e3a20696e76616c6964207369676e61747560008201527f7265000000000000000000000000000000000000000000000000000000000000602082015250565b7f5661756c743a2043616c6c6261636b206661696c65642e000000000000000000600082015250565b7f5661756c743a206465706f73697420616d6f756e74206e6f7420656e6f75676860008201527f2e00000000000000000000000000000000000000000000000000000000000000602082015250565b6135a8816130d1565b81146135b357600080fd5b50565b6135bf816130e3565b81146135ca57600080fd5b50565b6135d6816130ef565b81146135e157600080fd5b50565b6135ed816130f9565b81146135f857600080fd5b50565b6136048161310b565b811461360f57600080fd5b50565b61361b8161313d565b811461362657600080fd5b50565b61363281613147565b811461363d57600080fd5b5056fea2646970667358221220cf181b65f770a97deab5919ec0fc70d2f6b1dd99f0587d5dfa67d08a2abf5bbf64736f6c63430008040033",
  "devdoc": {
    "author": "MasterDevv",
    "details": "Extension of {ERC20} that allows flash lending.",
    "kind": "dev",
    "methods": {
      "allowContract(address,bool)": {
        "details": "Admin can add or remove contracts to the whitelist.",
        "params": {
          "addr": "contract address that you'll add or remove in whitelist.",
          "status": "add: true, remove: false"
        }
      },
      "approveContract(address,address,bool,uint8,bytes32,bytes32)": {
        "details": "This function will enable or disable the whitelisted contracts to transfer or withdraw user's vault shares. EIP712 hashing and signing method.",
        "params": {
          "addr": "user's approved contract(whiteList) == FlashBorrower's address",
          "r": "EIP712 hashing param r",
          "s": "EIP712 hashing param s",
          "status": "enable(true) or disable",
          "user": "user's address",
          "v": "EIP712 hashing param v"
        }
      },
      "constructor": {
        "params": {
          "feeRate_": "The percentage of the loan `amount` that needs to be repaid, in addition to `amount`."
        }
      },
      "deposit(address,uint256)": {
        "details": "User deposits any ERC20 tokens into vault and get vault shares.",
        "params": {
          "amount": "Amount to deposit.",
          "token": "Token address to deposit."
        }
      },
      "emergencyWithdraw(address,address,uint256)": {
        "details": "Admin can call this function to do emergency withdraw any ERC20 tokens when the vault is paused.",
        "params": {
          "amount": "amount for withdraw",
          "token": "ERC20token address for withdraw",
          "user": "user's address for withdraw"
        }
      },
      "flashFee(address,uint256)": {
        "details": "The fee to be charged for a given loan.",
        "params": {
          "amount": "The amount of tokens lent.",
          "token": "The loan currency."
        },
        "returns": {
          "_0": "The amount of `token` to be charged for the loan, on top of the returned principal."
        }
      },
      "flashLoan(address,address,uint256,bytes)": {
        "details": "Loan `amount` tokens to `receiver`, and takes it back plus a `flashFee` after the callback.",
        "params": {
          "amount": "The amount of tokens lent.",
          "data": "A data parameter to be passed on to the `receiver` for any custom use.",
          "receiver": "The contract receiving the tokens, needs to implement the `onFlashLoan(address user, uint256 amount, uint256 fee, bytes calldata)` interface.",
          "token": "The loan currency."
        }
      },
      "maxFlashLoan(address)": {
        "details": "The amount of currency available to be lent.",
        "params": {
          "token": "The loan currency."
        },
        "returns": {
          "_0": "The amount of `token` that can be borrowed."
        }
      },
      "owner()": {
        "details": "Returns the address of the current owner."
      },
      "paused()": {
        "details": "Returns true if the contract is paused, and false otherwise."
      },
      "renounceOwnership()": {
        "details": "Leaves the contract without owner. It will not be possible to call `onlyOwner` functions anymore. Can only be called by the current owner. NOTE: Renouncing ownership will leave the contract without an owner, thereby removing any functionality that is only available to the owner."
      },
      "setPause(bool)": {
        "details": "Admin can pause/unpause all the above main functions.",
        "params": {
          "pause": "paused status(true: pause, false: unpause)"
        }
      },
      "toShare(address,uint256)": {
        "details": "Helper view function that represents an amount of token in shares.",
        "params": {
          "amount": "amount of ERC20Token",
          "token": "ERC20Token interface for convert"
        }
      },
      "toUnderlying(address,uint256)": {
        "details": "Helper view function that represents shares back into the token amount",
        "params": {
          "share": "share of ERC20Token",
          "token": "ERC20Token interface for convert"
        }
      },
      "transfer(address,address,address,uint256)": {
        "details": "Transfer Function to transfer vault shares from one to another. Note This function can be called by user and user-approved contracts.",
        "params": {
          "receiver": "receiver address to transfer",
          "share": "A amount of vault share to transfer",
          "token": "token(ERC20) address to transfer",
          "user": "spender address to transfer"
        }
      },
      "transferOwnership(address)": {
        "details": "Transfers ownership of the contract to a new account (`newOwner`). Can only be called by the current owner."
      },
      "updateCode(address)": {
        "details": "This contract is using UUPS proxy pattern and admin can upgrade using updateCode function.",
        "params": {
          "newCode": "upgrade contract address"
        }
      },
      "updateFlashloanfeeRate(uint256)": {
        "details": "Admin can update the flashLoanfeeRate using this.",
        "params": {
          "feeRate_": "flashLoan-feeRate that you'll update."
        }
      },
      "withdraw(address,address)": {
        "details": "User withdraws the underlying tokens with vault shares. Note This function can be called by user and user-approved contracts.",
        "params": {
          "token": "Token address to withdraw.",
          "user": "User address to withdraw."
        }
      }
    },
    "version": 1
  },
  "userdoc": {
    "kind": "user",
    "methods": {
      "deposit(address,uint256)": {
        "notice": "In other words, User should be send to Vault Contract."
      }
    },
    "version": 1
  },
  "storageLayout": {
    "storage": [
      {
        "astId": 7,
        "contract": "contracts/Vault.sol:Vault",
        "label": "_owner",
        "offset": 0,
        "slot": "0",
        "type": "t_address"
      },
      {
        "astId": 130,
        "contract": "contracts/Vault.sol:Vault",
        "label": "_paused",
        "offset": 20,
        "slot": "0",
        "type": "t_bool"
      },
      {
        "astId": 231,
        "contract": "contracts/Vault.sol:Vault",
        "label": "_status",
        "offset": 0,
        "slot": "1",
        "type": "t_uint256"
      },
      {
        "astId": 2369,
        "contract": "contracts/Vault.sol:Vault",
        "label": "userShares",
        "offset": 0,
        "slot": "2",
        "type": "t_mapping(t_address,t_mapping(t_address,t_uint256))"
      },
      {
        "astId": 2375,
        "contract": "contracts/Vault.sol:Vault",
        "label": "whiteList",
        "offset": 0,
        "slot": "3",
        "type": "t_mapping(t_address,t_mapping(t_address,t_bool))"
      },
      {
        "astId": 2379,
        "contract": "contracts/Vault.sol:Vault",
        "label": "allowedContracts",
        "offset": 0,
        "slot": "4",
        "type": "t_mapping(t_address,t_bool)"
      },
      {
        "astId": 2383,
        "contract": "contracts/Vault.sol:Vault",
        "label": "totalShares",
        "offset": 0,
        "slot": "5",
        "type": "t_mapping(t_address,t_uint256)"
      },
      {
        "astId": 2387,
        "contract": "contracts/Vault.sol:Vault",
        "label": "totalAmounts",
        "offset": 0,
        "slot": "6",
        "type": "t_mapping(t_address,t_uint256)"
      },
      {
        "astId": 2389,
        "contract": "contracts/Vault.sol:Vault",
        "label": "feeRate",
        "offset": 0,
        "slot": "7",
        "type": "t_uint256"
      }
    ],
    "types": {
      "t_address": {
        "encoding": "inplace",
        "label": "address",
        "numberOfBytes": "20"
      },
      "t_bool": {
        "encoding": "inplace",
        "label": "bool",
        "numberOfBytes": "1"
      },
      "t_mapping(t_address,t_bool)": {
        "encoding": "mapping",
        "key": "t_address",
        "label": "mapping(address => bool)",
        "numberOfBytes": "32",
        "value": "t_bool"
      },
      "t_mapping(t_address,t_mapping(t_address,t_bool))": {
        "encoding": "mapping",
        "key": "t_address",
        "label": "mapping(address => mapping(address => bool))",
        "numberOfBytes": "32",
        "value": "t_mapping(t_address,t_bool)"
      },
      "t_mapping(t_address,t_mapping(t_address,t_uint256))": {
        "encoding": "mapping",
        "key": "t_address",
        "label": "mapping(address => mapping(address => uint256))",
        "numberOfBytes": "32",
        "value": "t_mapping(t_address,t_uint256)"
      },
      "t_mapping(t_address,t_uint256)": {
        "encoding": "mapping",
        "key": "t_address",
        "label": "mapping(address => uint256)",
        "numberOfBytes": "32",
        "value": "t_uint256"
      },
      "t_uint256": {
        "encoding": "inplace",
        "label": "uint256",
        "numberOfBytes": "32"
      }
    }
  }
}